{
  "_format": "hh-sol-artifact-1",
  "contractName": "CertificateManager",
  "sourceName": "contracts/CertificateManager.sol",
  "abi": [
    {
      "inputs": [],
      "stateMutability": "nonpayable",
      "type": "constructor"
    },
    {
      "anonymous": false,
      "inputs": [
        {
          "indexed": false,
          "internalType": "string",
          "name": "companyName",
          "type": "string"
        },
        {
          "indexed": false,
          "internalType": "string",
          "name": "issueDate",
          "type": "string"
        }
      ],
      "name": "CertificateIssued",
      "type": "event"
    },
    {
      "inputs": [],
      "name": "companyName",
      "outputs": [
        {
          "internalType": "string",
          "name": "",
          "type": "string"
        }
      ],
      "stateMutability": "view",
      "type": "function"
    },
    {
      "inputs": [],
      "name": "getCertificateDetails",
      "outputs": [
        {
          "internalType": "string",
          "name": "",
          "type": "string"
        },
        {
          "internalType": "string",
          "name": "",
          "type": "string"
        }
      ],
      "stateMutability": "view",
      "type": "function"
    },
    {
      "inputs": [],
      "name": "issueDate",
      "outputs": [
        {
          "internalType": "string",
          "name": "",
          "type": "string"
        }
      ],
      "stateMutability": "view",
      "type": "function"
    },
    {
      "inputs": [
        {
          "internalType": "string",
          "name": "_companyName",
          "type": "string"
        },
        {
          "internalType": "string",
          "name": "_issueDate",
          "type": "string"
        }
      ],
      "name": "setCertificateDetails",
      "outputs": [],
      "stateMutability": "nonpayable",
      "type": "function"
    }
  ],
  "bytecode": "0x608060405234801561001057600080fd5b506040518060200160405280600081525060009080519060200190610036929190610062565b50604051806020016040528060008152506001908051906020019061005c929190610062565b50610166565b82805461006e90610105565b90600052602060002090601f01602090048101928261009057600085556100d7565b82601f106100a957805160ff19168380011785556100d7565b828001600101855582156100d7579182015b828111156100d65782518255916020019190600101906100bb565b5b5090506100e491906100e8565b5090565b5b808211156101015760008160009055506001016100e9565b5090565b6000600282049050600182168061011d57607f821691505b6020821081141561013157610130610137565b5b50919050565b7f4e487b7100000000000000000000000000000000000000000000000000000000600052602260045260246000fd5b610715806101756000396000f3fe608060405234801561001057600080fd5b506004361061004c5760003560e01c806335308919146100515780636f4b25b1146100705780638d1343e01461008c578063f5ec2eed146100aa575b600080fd5b6100596100c8565b604051610067929190610548565b60405180910390f35b61008a60048036038101906100859190610481565b6101ef565b005b61009461025a565b6040516100a19190610526565b60405180910390f35b6100b26102e8565b6040516100bf9190610526565b60405180910390f35b606080600060018180546100db9061063e565b80601f01602080910402602001604051908101604052809291908181526020018280546101079061063e565b80156101545780601f1061012957610100808354040283529160200191610154565b820191906000526020600020905b81548152906001019060200180831161013757829003601f168201915b505050505091508080546101679061063e565b80601f01602080910402602001604051908101604052809291908181526020018280546101939061063e565b80156101e05780601f106101b5576101008083540402835291602001916101e0565b820191906000526020600020905b8154815290600101906020018083116101c357829003601f168201915b50505050509050915091509091565b8160009080519060200190610205929190610376565b50806001908051906020019061021c929190610376565b507f3ca9b880c8645562f6f6dae2ec8c6da0e58ddcc82681ed677eb65aaaaf587742828260405161024e929190610548565b60405180910390a15050565b600180546102679061063e565b80601f01602080910402602001604051908101604052809291908181526020018280546102939061063e565b80156102e05780601f106102b5576101008083540402835291602001916102e0565b820191906000526020600020905b8154815290600101906020018083116102c357829003601f168201915b505050505081565b600080546102f59061063e565b80601f01602080910402602001604051908101604052809291908181526020018280546103219061063e565b801561036e5780601f106103435761010080835404028352916020019161036e565b820191906000526020600020905b81548152906001019060200180831161035157829003601f168201915b505050505081565b8280546103829061063e565b90600052602060002090601f0160209004810192826103a457600085556103eb565b82601f106103bd57805160ff19168380011785556103eb565b828001600101855582156103eb579182015b828111156103ea5782518255916020019190600101906103cf565b5b5090506103f891906103fc565b5090565b5b808211156104155760008160009055506001016103fd565b5090565b600061042c610427846105b0565b61057f565b90508281526020810184848401111561044457600080fd5b61044f8482856105fc565b509392505050565b600082601f83011261046857600080fd5b8135610478848260208601610419565b91505092915050565b6000806040838503121561049457600080fd5b600083013567ffffffffffffffff8111156104ae57600080fd5b6104ba85828601610457565b925050602083013567ffffffffffffffff8111156104d757600080fd5b6104e385828601610457565b9150509250929050565b60006104f8826105e0565b61050281856105eb565b935061051281856020860161060b565b61051b816106ce565b840191505092915050565b6000602082019050818103600083015261054081846104ed565b905092915050565b6000604082019050818103600083015261056281856104ed565b9050818103602083015261057681846104ed565b90509392505050565b6000604051905081810181811067ffffffffffffffff821117156105a6576105a561069f565b5b8060405250919050565b600067ffffffffffffffff8211156105cb576105ca61069f565b5b601f19601f8301169050602081019050919050565b600081519050919050565b600082825260208201905092915050565b82818337600083830152505050565b60005b8381101561062957808201518184015260208101905061060e565b83811115610638576000848401525b50505050565b6000600282049050600182168061065657607f821691505b6020821081141561066a57610669610670565b5b50919050565b7f4e487b7100000000000000000000000000000000000000000000000000000000600052602260045260246000fd5b7f4e487b7100000000000000000000000000000000000000000000000000000000600052604160045260246000fd5b6000601f19601f830116905091905056fea26469706673582212206966cebbdc3f296a554ced49ae569a8077d26e6db588d663e1c6605650d296bc64736f6c63430008000033",
  "linkReferences": {},
  "deployedLinkReferences": {}
}