{
  "_format": "hh-sol-artifact-1",
  "contractName": "ICO",
  "sourceName": "contracts/ICO.sol",
  "abi": [
    {
      "inputs": [
        {
          "internalType": "address",
          "name": "_tokenAddress",
          "type": "address"
        }
      ],
      "stateMutability": "nonpayable",
      "type": "constructor"
    },
    {
      "inputs": [],
      "name": "EnforcedPause",
      "type": "error"
    },
    {
      "inputs": [],
      "name": "ExpectedPause",
      "type": "error"
    },
    {
      "inputs": [
        {
          "internalType": "address",
          "name": "owner",
          "type": "address"
        }
      ],
      "name": "OwnableInvalidOwner",
      "type": "error"
    },
    {
      "inputs": [
        {
          "internalType": "address",
          "name": "account",
          "type": "address"
        }
      ],
      "name": "OwnableUnauthorizedAccount",
      "type": "error"
    },
    {
      "anonymous": false,
      "inputs": [
        {
          "indexed": true,
          "internalType": "address",
          "name": "buyer",
          "type": "address"
        },
        {
          "indexed": false,
          "internalType": "uint256",
          "name": "tokenAmount",
          "type": "uint256"
        },
        {
          "indexed": false,
          "internalType": "uint256",
          "name": "cost",
          "type": "uint256"
        }
      ],
      "name": "JewelleryPurchased",
      "type": "event"
    },
    {
      "anonymous": false,
      "inputs": [
        {
          "indexed": true,
          "internalType": "address",
          "name": "previousOwner",
          "type": "address"
        },
        {
          "indexed": true,
          "internalType": "address",
          "name": "newOwner",
          "type": "address"
        }
      ],
      "name": "OwnershipTransferred",
      "type": "event"
    },
    {
      "anonymous": false,
      "inputs": [
        {
          "indexed": false,
          "internalType": "address",
          "name": "account",
          "type": "address"
        }
      ],
      "name": "Paused",
      "type": "event"
    },
    {
      "anonymous": false,
      "inputs": [
        {
          "indexed": true,
          "internalType": "address",
          "name": "buyer",
          "type": "address"
        },
        {
          "indexed": false,
          "internalType": "uint256",
          "name": "amount",
          "type": "uint256"
        },
        {
          "indexed": false,
          "internalType": "uint256",
          "name": "cost",
          "type": "uint256"
        }
      ],
      "name": "TokensBought",
      "type": "event"
    },
    {
      "anonymous": false,
      "inputs": [
        {
          "indexed": false,
          "internalType": "address",
          "name": "account",
          "type": "address"
        }
      ],
      "name": "Unpaused",
      "type": "event"
    },
    {
      "inputs": [],
      "name": "buyToken",
      "outputs": [],
      "stateMutability": "payable",
      "type": "function"
    },
    {
      "inputs": [],
      "name": "decimals",
      "outputs": [
        {
          "internalType": "uint8",
          "name": "",
          "type": "uint8"
        }
      ],
      "stateMutability": "pure",
      "type": "function"
    },
    {
      "inputs": [],
      "name": "getAllowance",
      "outputs": [
        {
          "internalType": "uint256",
          "name": "",
          "type": "uint256"
        }
      ],
      "stateMutability": "view",
      "type": "function"
    },
    {
      "inputs": [],
      "name": "getBalance",
      "outputs": [
        {
          "internalType": "uint256",
          "name": "",
          "type": "uint256"
        }
      ],
      "stateMutability": "view",
      "type": "function"
    },
    {
      "inputs": [],
      "name": "getTotalTokensSold",
      "outputs": [
        {
          "internalType": "uint256",
          "name": "",
          "type": "uint256"
        }
      ],
      "stateMutability": "view",
      "type": "function"
    },
    {
      "inputs": [],
      "name": "owner",
      "outputs": [
        {
          "internalType": "address",
          "name": "",
          "type": "address"
        }
      ],
      "stateMutability": "view",
      "type": "function"
    },
    {
      "inputs": [],
      "name": "pause",
      "outputs": [],
      "stateMutability": "nonpayable",
      "type": "function"
    },
    {
      "inputs": [],
      "name": "paused",
      "outputs": [
        {
          "internalType": "bool",
          "name": "",
          "type": "bool"
        }
      ],
      "stateMutability": "view",
      "type": "function"
    },
    {
      "inputs": [],
      "name": "price",
      "outputs": [
        {
          "internalType": "uint256",
          "name": "",
          "type": "uint256"
        }
      ],
      "stateMutability": "view",
      "type": "function"
    },
    {
      "inputs": [],
      "name": "renounceOwnership",
      "outputs": [],
      "stateMutability": "nonpayable",
      "type": "function"
    },
    {
      "inputs": [],
      "name": "token",
      "outputs": [
        {
          "internalType": "contract IERC20",
          "name": "",
          "type": "address"
        }
      ],
      "stateMutability": "view",
      "type": "function"
    },
    {
      "inputs": [],
      "name": "totalTokensSold",
      "outputs": [
        {
          "internalType": "uint256",
          "name": "",
          "type": "uint256"
        }
      ],
      "stateMutability": "view",
      "type": "function"
    },
    {
      "inputs": [
        {
          "internalType": "address",
          "name": "newOwner",
          "type": "address"
        }
      ],
      "name": "transferOwnership",
      "outputs": [],
      "stateMutability": "nonpayable",
      "type": "function"
    },
    {
      "inputs": [],
      "name": "unpause",
      "outputs": [],
      "stateMutability": "nonpayable",
      "type": "function"
    },
    {
      "inputs": [],
      "name": "withdrawal",
      "outputs": [],
      "stateMutability": "nonpayable",
      "type": "function"
    }
  ],
  "bytecode": "0x6080604052670de0b6b3a764000060025534801561001c57600080fd5b50604051611266380380611266833981810160405281019061003e919061024a565b3360008060006101000a81548160ff021916908315150217905550600073ffffffffffffffffffffffffffffffffffffffff168173ffffffffffffffffffffffffffffffffffffffff16036100cb5760006040517f1e4fbdf70000000000000000000000000000000000000000000000000000000081526004016100c29190610286565b60405180910390fd5b6100da8161012260201b60201c565b5080600160006101000a81548173ffffffffffffffffffffffffffffffffffffffff021916908373ffffffffffffffffffffffffffffffffffffffff160217905550506102a1565b60008060019054906101000a900473ffffffffffffffffffffffffffffffffffffffff16905081600060016101000a81548173ffffffffffffffffffffffffffffffffffffffff021916908373ffffffffffffffffffffffffffffffffffffffff1602179055508173ffffffffffffffffffffffffffffffffffffffff168173ffffffffffffffffffffffffffffffffffffffff167f8be0079c531659141344cd1fd0a4f28419497f9722a3daafe3b4186f6b6457e060405160405180910390a35050565b600080fd5b600073ffffffffffffffffffffffffffffffffffffffff82169050919050565b6000610217826101ec565b9050919050565b6102278161020c565b811461023257600080fd5b50565b6000815190506102448161021e565b92915050565b6000602082840312156102605761025f6101e7565b5b600061026e84828501610235565b91505092915050565b6102808161020c565b82525050565b600060208201905061029b6000830184610277565b92915050565b610fb6806102b06000396000f3fe6080604052600436106100e85760003560e01c80638da5cb5b1161008a578063a482171911610059578063a48217191461028a578063d4e9329214610294578063f2fde38b146102ab578063fc0c546a146102d4576100e8565b80638da5cb5b146101de57806394c3316314610209578063973e9b8b14610234578063a035b1fe1461025f576100e8565b80635c975abb116100c65780635c975abb1461015a57806363b2011714610185578063715018a6146101b05780638456cb59146101c7576100e8565b806312065fe0146100ed578063313ce567146101185780633f4ba83a14610143575b600080fd5b3480156100f957600080fd5b506101026102ff565b60405161010f9190610a9b565b60405180910390f35b34801561012457600080fd5b5061012d6103a2565b60405161013a9190610ad2565b60405180910390f35b34801561014f57600080fd5b506101586103ab565b005b34801561016657600080fd5b5061016f6103bd565b60405161017c9190610b08565b60405180910390f35b34801561019157600080fd5b5061019a6103d3565b6040516101a79190610a9b565b60405180910390f35b3480156101bc57600080fd5b506101c56103d9565b005b3480156101d357600080fd5b506101dc6103ed565b005b3480156101ea57600080fd5b506101f36103ff565b6040516102009190610b64565b60405180910390f35b34801561021557600080fd5b5061021e610428565b60405161022b9190610a9b565b60405180910390f35b34801561024057600080fd5b50610249610432565b6040516102569190610a9b565b60405180910390f35b34801561026b57600080fd5b506102746104de565b6040516102819190610a9b565b60405180910390f35b6102926104e4565b005b3480156102a057600080fd5b506102a96106e5565b005b3480156102b757600080fd5b506102d260048036038101906102cd9190610bb0565b61073d565b005b3480156102e057600080fd5b506102e96107c3565b6040516102f69190610c3c565b60405180910390f35b6000600160009054906101000a900473ffffffffffffffffffffffffffffffffffffffff1673ffffffffffffffffffffffffffffffffffffffff166370a08231336040518263ffffffff1660e01b815260040161035c9190610b64565b602060405180830381865afa158015610379573d6000803e3d6000fd5b505050506040513d601f19601f8201168201806040525081019061039d9190610c83565b905090565b60006012905090565b6103b36107e9565b6103bb610870565b565b60008060009054906101000a900460ff16905090565b60035481565b6103e16107e9565b6103eb60006108d2565b565b6103f56107e9565b6103fd610997565b565b60008060019054906101000a900473ffffffffffffffffffffffffffffffffffffffff16905090565b6000600354905090565b6000600160009054906101000a900473ffffffffffffffffffffffffffffffffffffffff1673ffffffffffffffffffffffffffffffffffffffff1663dd62ed3e61047a6103ff565b306040518363ffffffff1660e01b8152600401610498929190610cb0565b602060405180830381865afa1580156104b5573d6000803e3d6000fd5b505050506040513d601f19601f820116820180604052508101906104d99190610c83565b905090565b60025481565b6104ec6109f9565b60003490506000670de0b6b3a76400006002548361050a9190610d37565b6105149190610d68565b905060008111610559576040517f08c379a000000000000000000000000000000000000000000000000000000000815260040161055090610e07565b60405180910390fd5b6105616103ff565b73ffffffffffffffffffffffffffffffffffffffff163373ffffffffffffffffffffffffffffffffffffffff16036105ce576040517f08c379a00000000000000000000000000000000000000000000000000000000081526004016105c590610e73565b60405180910390fd5b600160009054906101000a900473ffffffffffffffffffffffffffffffffffffffff1673ffffffffffffffffffffffffffffffffffffffff166323b872dd6106146103ff565b33846040518463ffffffff1660e01b815260040161063493929190610e93565b6020604051808303816000875af1158015610653573d6000803e3d6000fd5b505050506040513d601f19601f820116820180604052508101906106779190610ef6565b50806003600082825461068a9190610f23565b925050819055503373ffffffffffffffffffffffffffffffffffffffff167f8442948036198f1146d3a63c3db355d7e0295c2cc5676c755990445da4fdc1c982846040516106d9929190610f57565b60405180910390a25050565b6106ed6107e9565b6106f56103ff565b73ffffffffffffffffffffffffffffffffffffffff166108fc479081150290604051600060405180830381858888f1935050505015801561073a573d6000803e3d6000fd5b50565b6107456107e9565b600073ffffffffffffffffffffffffffffffffffffffff168173ffffffffffffffffffffffffffffffffffffffff16036107b75760006040517f1e4fbdf70000000000000000000000000000000000000000000000000000000081526004016107ae9190610b64565b60405180910390fd5b6107c0816108d2565b50565b600160009054906101000a900473ffffffffffffffffffffffffffffffffffffffff1681565b6107f1610a3a565b73ffffffffffffffffffffffffffffffffffffffff1661080f6103ff565b73ffffffffffffffffffffffffffffffffffffffff161461086e57610832610a3a565b6040517f118cdaa70000000000000000000000000000000000000000000000000000000081526004016108659190610b64565b60405180910390fd5b565b610878610a42565b60008060006101000a81548160ff0219169083151502179055507f5db9ee0a495bf2e6ff9c91a7834c1ba4fdd244a5e8aa4e537bd38aeae4b073aa6108bb610a3a565b6040516108c89190610b64565b60405180910390a1565b60008060019054906101000a900473ffffffffffffffffffffffffffffffffffffffff16905081600060016101000a81548173ffffffffffffffffffffffffffffffffffffffff021916908373ffffffffffffffffffffffffffffffffffffffff1602179055508173ffffffffffffffffffffffffffffffffffffffff168173ffffffffffffffffffffffffffffffffffffffff167f8be0079c531659141344cd1fd0a4f28419497f9722a3daafe3b4186f6b6457e060405160405180910390a35050565b61099f6109f9565b60016000806101000a81548160ff0219169083151502179055507f62e78cea01bee320cd4e420270b5ea74000d11b0c9f74754ebdbfc544b05a2586109e2610a3a565b6040516109ef9190610b64565b60405180910390a1565b610a016103bd565b15610a38576040517fd93c066500000000000000000000000000000000000000000000000000000000815260040160405180910390fd5b565b600033905090565b610a4a6103bd565b610a80576040517f8dfc202b00000000000000000000000000000000000000000000000000000000815260040160405180910390fd5b565b6000819050919050565b610a9581610a82565b82525050565b6000602082019050610ab06000830184610a8c565b92915050565b600060ff82169050919050565b610acc81610ab6565b82525050565b6000602082019050610ae76000830184610ac3565b92915050565b60008115159050919050565b610b0281610aed565b82525050565b6000602082019050610b1d6000830184610af9565b92915050565b600073ffffffffffffffffffffffffffffffffffffffff82169050919050565b6000610b4e82610b23565b9050919050565b610b5e81610b43565b82525050565b6000602082019050610b796000830184610b55565b92915050565b600080fd5b610b8d81610b43565b8114610b9857600080fd5b50565b600081359050610baa81610b84565b92915050565b600060208284031215610bc657610bc5610b7f565b5b6000610bd484828501610b9b565b91505092915050565b6000819050919050565b6000610c02610bfd610bf884610b23565b610bdd565b610b23565b9050919050565b6000610c1482610be7565b9050919050565b6000610c2682610c09565b9050919050565b610c3681610c1b565b82525050565b6000602082019050610c516000830184610c2d565b92915050565b610c6081610a82565b8114610c6b57600080fd5b50565b600081519050610c7d81610c57565b92915050565b600060208284031215610c9957610c98610b7f565b5b6000610ca784828501610c6e565b91505092915050565b6000604082019050610cc56000830185610b55565b610cd26020830184610b55565b9392505050565b7f4e487b7100000000000000000000000000000000000000000000000000000000600052601260045260246000fd5b7f4e487b7100000000000000000000000000000000000000000000000000000000600052601160045260246000fd5b6000610d4282610a82565b9150610d4d83610a82565b925082610d5d57610d5c610cd9565b5b828204905092915050565b6000610d7382610a82565b9150610d7e83610a82565b9250828202610d8c81610a82565b91508282048414831517610da357610da2610d08565b5b5092915050565b600082825260208201905092915050565b7f416d6f756e74206d7573742062652067726561746572207468616e207a65726f600082015250565b6000610df1602083610daa565b9150610dfc82610dbb565b602082019050919050565b60006020820190508181036000830152610e2081610de4565b9050919050565b7f4f776e65722063616e6e6f742075736520746869732066756e6374696f6e0000600082015250565b6000610e5d601e83610daa565b9150610e6882610e27565b602082019050919050565b60006020820190508181036000830152610e8c81610e50565b9050919050565b6000606082019050610ea86000830186610b55565b610eb56020830185610b55565b610ec26040830184610a8c565b949350505050565b610ed381610aed565b8114610ede57600080fd5b50565b600081519050610ef081610eca565b92915050565b600060208284031215610f0c57610f0b610b7f565b5b6000610f1a84828501610ee1565b91505092915050565b6000610f2e82610a82565b9150610f3983610a82565b9250828201905080821115610f5157610f50610d08565b5b92915050565b6000604082019050610f6c6000830185610a8c565b610f796020830184610a8c565b939250505056fea264697066735822122003776c330beec616bd3a525929ba9ede873b65285ef323dc4a41ffd8d670338e64736f6c634300081c0033",
  "linkReferences": {},
  "deployedLinkReferences": {}
}